:100000000C9434000C9440000C945D000C943E0061
:100010000C943E000C943E000C943E000C943E0068
:100020000C943E000C943E000C943E000C943E0058
:100030000C943E000C943E000C943E000C943E0048
:100040000C943E000C943E000C943E000C943E0038
:100050000C943E000C943E000C943E000C943E0028
:100060000C943E000C943E0011241FBECFEFD8E04C
:10007000DEBFCDBF0E947D000C94D5000C94000023
:100080001F920F920FB60F9211248F939F93EF93AD
:10009000FF93CF93DF93CDB7DEB785E290E0FC010D
:1000A00010820000DF91CF91FF91EF919F918F918E
:1000B0000F900FBE0F901F9018951F920F920FB6C2
:1000C0000F9211242F938F939F93EF93FF93CF93CE
:1000D000DF93CDB7DEB785E290E02FEFFC01208300
:1000E0000000DF91CF91FF91EF919F918F912F9120
:1000F0000F900FBE0F901F901895CF93DF93CDB741
:10010000DEB784E290E02FEFFC01208385E290E0EF
:100110002FEFFC0120838AE290E0FC0120818AE23B
:1001200090E02B7FFC0120838BE290E0FC0120819A
:100130008BE290E02460FC0120838AE290E0FC01E5
:1001400020818AE290E0277FFC0120838BE290E00F
:10015000FC0120818BE290E02860FC01208389E68D
:1001600090E0FC01208189E690E02260FC01208380
:1001700089E690E0FC01208189E690E02860FC019E
:1001800020838DE390E0FC0120818DE390E02160ED
:10019000FC0120838DE390E0FC0120818DE390E061
:0E01A0002260FC0120837894FFCFF894FFCFFB
:00000001FF
