:100000000C9434000C9449000C9449000C94490061
:100010000C9449000C9449000C9449000C9449003C
:100020000C9449000C9449000C9449000C9449002C
:100030000C9449000C9449000C9449000C9449001C
:100040000C9449000C9449000C9449000C9449000C
:100050000C9449000C9450010C9449000C944900F4
:100060000C9449000C94490011241FBECFEFD8E036
:10007000DEBFCDBF11E0A0E0B1E0E4ECF3E002C0F0
:1000800005900D92AC30B107D9F70E9441010C9454
:10009000E0010C940000CF93DF931F92CDB7DEB741
:1000A0008983000080EC90E0FC018081882F90E043
:1000B00080729927892BB1F386EC90E02981FC01AD
:1000C000208300000F90DF91CF910895CF93DF93AD
:1000D00000D0CDB7DEB79A8389830BC089819A811E
:1000E0009C012F5F3F4F3A832983FC0180810E944E
:1000F0004B0089819A81FC018081882379F7000077
:100100000F900F90DF91CF910895CF93DF9300D0A0
:10011000CDB7DEB79A83898389819A810E94660070
:1001200080E091E00E94660000000F900F90DF9148
:10013000CF910895CF93DF93CDB7DEB78CE790E0F2
:100140002CE730E0F90120812064FC0120838AE75C
:1001500090E02AE730E0F90120812F6AFC0120833A
:100160000E947D0178948AE790E02AE730E0F90167
:1001700020812064FC0120830000DF91CF9108954D
:10018000CF93DF93CDB7DEB72C970FB6F894DEBFD1
:100190000FBECDBF88E790E0FC018081282F30E0C2
:1001A00089E790E0FC018081882F90E0982F8827D4
:1001B000822B932B9A83898389819A819E012D5F5B
:1001C0003F4F4AE050E0B9010E94A0010E94850023
:1001D00000002C960FB6F894DEBF0FBECDBFDF91A6
:1001E000CF910895CF93DF931F92CDB7DEB7898368
:1001F000000080EC90E0FC018081882F90E080720C
:100200009927892BB1F386EC90E02981FC012083AA
:1002100000000F90DF91CF910895CF93DF9300D02E
:10022000CDB7DEB79A8389830BC089819A819C01FF
:100230002F5F3F4F3A832983FC0180810E94F200A7
:1002400089819A81FC018081882379F700000F90D1
:100250000F90DF91CF910895CF93DF9300D0CDB76A
:10026000DEB79A83898389819A810E940D0183E098
:1002700091E00E940D0100000F900F90DF91CF914F
:100280000895CF93DF93CDB7DEB70E949A0086E042
:1002900091E00E942C0180E090E0DF91CF910895E1
:1002A0001F920F9200905F000F9211242F933F93A3
:1002B0004F935F936F937F938F939F93AF93BF936E
:1002C000EF93FF93CF93DF93CDB7DEB70E94C000CB
:1002D0000000DF91CF91FF91EF91BF91AF919F917E
:1002E0008F917F916F915F914F913F912F910F90DF
:1002F00000925F000F901F901895CF93DF93CDB7BA
:10030000DEB785EC90E0FC01108284EC90E027E6FB
:10031000FC01208381EC90E021EC30E0F9012081A8
:100320002860FC01208382EC90E022EC30E0F901AF
:1003300020812660FC0120830000DF91CF91089589
:100340004532510520F4423010F00C94AB01FB0112
:100350001082CB010895BB274A3031F4992322F44F
:10036000BDE2909581959F4F0C94B701BB27FB018F
:100370005527AA27880F991FAA1FA41710F0A41B9E
:1003800083955051B9F7A05DAA3308F0A95DA193F8
:10039000009779F7B111B1931192CB010C94D00170
:1003A000DC01FC01672F71917723E1F7329704C0DC
:1003B0007C916D9370836291AE17BF07C8F3089567
:0403C000F894FFCFDF
:0C03C4000D0A000D0A00476F2E2E2E00BF
:00000001FF
