:100000000C9434000C943E000C943E000C943E0082
:100010000C943E000C943E000C943E000C943E0068
:100020000C943E000C943E000C943E000C943E0058
:100030000C943E000C943E000C9440000C943E0046
:100040000C943E000C943E000C943E000C943E0038
:100050000C943E000C943E000C943E000C943E0028
:100060000C943E000C943E0011241FBECFEFD8E04C
:10007000DEBFCDBF0E9464000C9493000C9400007E
:100080001F920F920FB60F9211242F938F939F936D
:10009000EF93FF93CF93DF93CDB7DEB785E290E088
:1000A000FC01208185E290E02095FC012083000086
:1000B000DF91CF91FF91EF919F918F912F910F90B1
:1000C0000FBE0F901F901895CF93DF93CDB7DEB77B
:1000D00084E290E02FEFFC01208385E290E0FC01B8
:1000E000108284E490E0FC01208184E490E02260AE
:1000F000FC01208387E490E026E4FC0120838EE667
:1001000090E0FC0120818EE690E02260FC012083DB
:10011000789485E490E0FC01208185E490E02460FF
:0A012000FC012083FFCFF894FFCF0D
:00000001FF
