:100000000C9434000C9451000C9451000C94510049
:100010000C9451000C9451000C9451000C9451001C
:100020000C9451000C9451000C9451000C9451000C
:100030000C9451000C9451000C9451000C945100FC
:100040000C9451000C9451000C94F8000C94510045
:100050000C9451000C9451000C9451000C945100DC
:100060000C9451000C94510011241FBECFEFD8E026
:10007000DEBFCDBF11E0A0E0B1E0EEE5F2E002C0EE
:1000800005900D92AE30B107D9F721E0AEE0B1E0B6
:1000900001C01D92A131B207E1F70E94B3000C9498
:1000A0002D010C940000CF93DF931F92CDB7DEB7E4
:1000B0008983000080EC90E0FC018081882F90E033
:1000C00080729927892BB1F386EC90E02981FC019D
:1000D000208300000F90DF91CF910895CF93DF939D
:1000E00000D0CDB7DEB79A8389830BC089819A810E
:1000F0009C012F5F3F4F3A832983FC0180810E943E
:10010000530089819A81FC018081882379F700005E
:100110000F900F90DF91CF910895CF93DF9300D090
:10012000CDB7DEB79A83898389819A810E946E0058
:1001300080E091E00E946E0000000F900F90DF9130
:10014000CF910895CF93DF931F92CDB7DEB7898308
:1001500089818093100189810E94530000000F90D3
:10016000DF91CF910895CF93DF93CDB7DEB782EAC9
:1001700090E00E94C00083E091E00E948D00FFCFDC
:10018000CF93DF9300D0CDB7DEB79A83898389817F
:100190009A8190930F0180930E0185EC90E0FC0111
:1001A000108284EC90E027E6FC01208381EC90E053
:1001B00021EC30E0F90120812861FC01208381ECF1
:1001C00090E021EC30E0F90120812068FC012083DF
:1001D00082EC90E022EC30E0F90120812660FC0105
:1001E0002083789400000F900F90DF91CF910895B5
:1001F0001F920F9200905F000F9211242F933F9354
:100200004F935F936F937F938F939F93AF93BF931E
:10021000EF93FF93CF93DF93CDB7DEB720910E011D
:1002200030910F0186EC90E0FC018081F901099585
:100230000000DF91CF91FF91EF91BF91AF919F911E
:100240008F917F916F915F914F913F912F910F907F
:0E02500000925F000F901F901895F894FFCF5A
:0E025E000D0A0048616C6C6F2057656C7400CF
:00000001FF
